S00E00006D61737465722E737265638A
S11300000C942A000C9447000C9447000C9447006D
S11300100C9447000C9447000C9447000C94470040
S11300200C9447000C9447000C94620C0C94470009
S11300300C9447000C9447000C9447000C94470020
S11300400C9447000C9447000C9447000C94470010
S11300500C94470011241FBECFE5D8E0DEBFCDBF0E
S113006012E0A0E6B0E0E6EDFAE102C005900D92E0
S1130070A631B107D9F712E0A6E1B2E001C01D92A2
S1130080AA31B107E1F70E9484040C94690D0C9421
S11300900000823451F1833420F4813409F07BC0B0
S11300A007C0833409F43EC0843409F074C057C0D7
S11300B0413069F42AB381E090E0AC0102C0440FFE
S11300C0551F6A95E2F7BA01622B6ABB08952AB3F9
S11300D081E090E0AC0102C0440F551F6A95E2F73D
S11300E0BA01609562236ABB0895413069F427B36D
S11300F081E090E0AC0102C0440F551F6A95E2F71D
S1130100BA01622B67BB089527B381E090E0AC018C
S113011002C0440F551F6A95E2F7BA016095622345
S113012067BB0895413069F424B381E090E0AC01E9
S113013002C0440F551F6A95E2F7BA01622B64BBF3
S1130140089524B381E090E0AC0102C0440F551F30
S11301506A95E2F7BA016095622364BB0895413061
S113016069F421B381E090E0AC0102C0440F551F53
S11301706A95E2F7BA01622B61BB089521B381E06D
S113018090E0AC0102C0440F551F6A95E2F7BA0132
S11301906095622361BB0895823451F1833420F465
S11301A0813409F07BC007C0833409F43EC0843431
S11301B009F074C057C0413069F42BB381E090E07A
S11301C0AC0102C0440F551F6A95E2F7BA01622BD5
S11301D06BBB08952BB381E090E0AC0102C0440FE7
S11301E0551F6A95E2F7BA01609562236BBB0895C7
S11301F0413069F428B381E090E0AC0102C0440FBF
S1130200551F6A95E2F7BA01622B68BB089528B3BB
S113021081E090E0AC0102C0440F551F6A95E2F7FB
S1130220BA016095622368BB0895413069F425B32F
S113023081E090E0AC0102C0440F551F6A95E2F7DB
S1130240BA01622B65BB089525B381E090E0AC014F
S113025002C0440F551F6A95E2F7BA016095622304
S113026065BB0895413069F422B381E090E0AC01AC
S113027002C0440F551F6A95E2F7BA01622B62BBB4
S1130280089522B381E090E0AC0102C0440F551FF1
S11302906A95E2F7BA016095622362BB08958234DD
S11302A0F1F0833420F4813409F04FC006C0833464
S11302B041F1843409F049C036C029B381E090E0AB
S11302C0062E02C0880F991F0A94E2F730E08223B9
S11302D0932302C0959587956A95E2F7089526B30E
S11302E081E090E0062E02C0880F991F0A94E2F77D
S11302F030E08223932302C0959587956A95E2F7AF
S1130300089523B381E090E0062E02C0880F991F60
S11303100A94E2F730E08223932302C095958795EF
S11303206A95E2F7089520B381E090E0062E02C0BA
S1130330880F991F0A94E2F730E08223932302C0C6
S1130340959587956A95E2F7089580E0089582343B
S1130350B9F0833418F48134C9F505C08334E9F065
S11303608434A1F527C02BB381E090E0AC0102C036
S1130370440F551F6A95E2F7BA0162276BBB0895D3
S113038028B381E090E0AC0102C0440F551F6A9588
S1130390E2F7BA01622768BB089525B381E090E0D3
S11303A0AC0102C0440F551F6A95E2F7BA016227F7
S11303B065BB089522B381E090E0AC0102C0440F14
S11303C0551F6A95E2F7BA01622762BB0895823429
S11303D061F0833418F4813469F405C0833439F04E
S11303E0843441F406C06ABB089567BB089564BBB6
S11303F0089561BB0895823461F0833418F4813424
S113040069F405C0833439F0843441F406C06BBB0D
S1130410089568BB089565BB089562BB089582344E
S113042061F0833418F4813471F405C0833439F0F5
S1130430843449F406C089B3089586B3089583B318
S1130440089580B3089580E00895823451F183348F
S113045020F4813409F07BC007C0833409F43EC022
S1130460843409F074C057C0413069F42BB381E07F
S113047090E0AC0102C0440F551F6A95E2F7BA013F
S1130480622B6BBB08952BB381E090E0AC0102C0FA
S1130490440F551F6A95E2F7BA01609562236BBB5E
S11304A00895413069F428B381E090E0AC0102C0C2
S11304B0440F551F6A95E2F7BA01622B68BB089591
S11304C028B381E090E0AC0102C0440F551F6A9547
S11304D0E2F7BA016095622368BB0895413069F47C
S11304E025B381E090E0AC0102C0440F551F6A952A
S11304F0E2F7BA01622B65BB089525B381E090E071
S1130500AC0102C0440F551F6A95E2F7BA01609529
S1130510622365BB0895413069F422B381E090E021
S1130520AC0102C0440F551F6A95E2F7BA01622B71
S113053062BB089522B381E090E0AC0102C0440F95
S1130540551F6A95E2F7BA016095622362BB08956C
S11305506F70823481F0833418F48134F1F405C06F
S1130560833479F08434C9F412C08BB3807F8BBB9D
S11305708BB3862B8BBB88B3807F88BB88B3862BD9
S113058088BB85B3807F85BB85B3862B85BB82B34F
S1130590807F82BB82B3682B62BB08956295607FC3
S11305A0823481F0833418F48134F1F405C0833447
S11305B079F08434C9F412C08BB38F708BBB8BB3C6
S11305C0862B8BBB88B38F7088BB88B3862B88BB84
S11305D085B38F7085BB85B3862B85BB82B38F7043
S11305E082BB82B3682B62BB08958EBB9FBB6DBB7D
S11305F0E29AE19AE199FECF08958EBB9FBBE09AFF
S11306008DB3089584E460E041E00E94490084E4ED
S113061061E041E00E94490084E462E041E00E941C
S1130620490084E463E041E00E94490084E464E01A
S113063040E00E94490084E465E040E00E944900F3
S113064084E466E040E00E94490084E467E040E01E
S11306500E94490084E464E041E00E94250284E4AD
S113066065E041E00E94250284E466E041E00E94E6
S1130670250284E467E041E00E94250208950F9377
S11306801F93CF93DF93CDB7DEB760970FB6F8947F
S1130690DEBF0FBECDBFDE011196E0E6F0E080E1E3
S11306A001900D928150E1F700E084E460E041E0C4
S11306B00E94CC0084E461E041E00E94CC0084E428
S11306C062E041E00E94CC0084E463E041E00E94E7
S11306D0CC0084E4602F40E00E94CC0010E0612F45
S11306E06C5F84E40E944F01882361F4E02FF0E002
S11306F0EE0FFF1FEE0FFF1FE10FF11DEC0FFD1FAB
S1130700818104C01F5F143051F70BC060960FB68F
S1130710F894DEBF0FBECDBFDF91CF911F910F9133
S113072008950F5F043009F68FEFF0CF82E460E0A4
S113073041E00E94CC008FE99FE00197F1F700C0EF
S1130740000082E460E040E00E94CC008FE99FE07A
S11307500197F1F700C000000895682F81E40E941A
S1130760FB0182E461E040E00E94CC000E94960319
S11307708FEC97E00197F1F700C0000008958FEF28
S113078091EEA4E081509040A040E1F700C0000049
S113079081E460E041E00E94490081E461E041E0DD
S11307A00E94490081E462E041E00E94490081E442
S11307B063E041E00E94490081E464E041E00E947A
S11307C0490081E465E041E00E94490081E466E07B
S11307D041E00E94490081E467E041E00E94490051
S11307E082E460E041E00E94490082E462E041E08A
S11307F00E94490082E461E041E00E94490082E4F1
S113080062E040E00E94CC0088E30E94AD03AFECBC
S1130810B7E01197F1F700C000008EE00E94AD032D
S11308208FEC97E00197F1F700C0000081E00E948F
S1130830AD03AFE1BEE41197F1F700C0000086E01C
S11308400E94AD038FEC97E00197F1F700C0000020
S11308500895682F81E40E94FB0182E461E041E095
S11308600E94CC000E9496038FEC97E00197F1F769
S113087000C000000895CF93DF93EC0188818823A2
S113088031F021960E94290489918823D9F7DF91B8
S1130890CF91089581E00E94AD038FE19EE401971A
S11308A0F1F700C000000895282F2150223070F481
S11308B0613170F4662371F0813019F4962F9158E8
S11308C00AC0823041F4962F915405C090E803C0C9
S11308D090E801C090E8892F0E94AD038FEC97E067
S11308E00197F1F700C00000089541E00E9449001B
S11308F0089541E00E94CC00089540E00E94CC009D
S113090008950E94A7010895CF93DF93CDB7DEB772
S11309102B970FB6F894DEBF0FBECDBFDE01119644
S1130920E1E1F2E083E001900D928150E1F7DE0114
S11309301496E1E1F2E083E001900D928150E1F739
S11309400E94BF030E9402030E94BE0C83E460E085
S11309500E94750483E461E00E94750483E462E00C
S11309600E94750422E0298732E0388741E850E08C
S11309704A875B870F2EFDEC8F2EF1E09F2EF02D22
S11309800F2EFCED6F2EF1E07F2EF02D89E090E02C
S11309900E94FD02882309F056C089E090E06FEFC1
S11309A00E94F50283E462E00E9479040E94070D2C
S11309B00E944A0480E790E00E943B0482E061E0E8
S11309C00E9454048BE790E00E943B0480E190E095
S11309D00E94FD02182F0F2EFAE0EF2EF02D2DC0ED
S11309E0812F6E2D0E94500D082F005D0F2EF0E315
S11309F0FF2EF02DF90E80E190E0612F0E94F502A8
S1130A0082E066E00E9454048CE00E94AD03802FD3
S1130A100E9429048F2D0E9429048A859B850E94A7
S1130A203B0480911802909119028436910518F3C1
S1130A301150109219021092180211168CF292E0C1
S1130A409987A2E0A8870E944A0481E065E00E9499
S1130A50540489E890E00E943B0482E062E00E9432
S1130A6054048FE890E00E943B042FEF34E34CE001
S1130A70215030404040E1F700C000000E944A0489
S1130A808EE00E94AD0380E090E00E94FD028F3F63
S1130A9009F08BC08CE990E00E943B0482E061E0A5
S1130AA00E94540489EA90E00E943B04EE24FF244F
S1130AB0E3940E943F03182F8F3FD9F30E94290427
S1130AC08FE79AE1A6E081509040A040E1F700C092
S1130AD000006E2D655F82E00E9454048AE20E9449
S1130AE02904C701612F0E94F5020894E11CF11C3E
S1130AF095E0E916F104E9F60E944A0485EB90E0DA
S1130B000E943B042FEF33EC49E021503040404039
S1130B10E1F700C000000E944A048CE990E00E94C2
S1130B203B0482E061E00E94540480EC90E00E9467
S1130B303B040F2EF5E0EF2EFF24F02D0E943F031F
S1130B40182F8F3FD9F30E9429048FE79AE1A6E07A
S1130B5081509040A040E1F700C000006E2D695F15
S1130B6082E00E9454048AE20E942904C701612F92
S1130B700E94F5020894E11CF11C99E0E916F104C5
S1130B80E9F60E944A0485EB90E00E943B042FEFB3
S1130B9033EC49E0215030404040E1F700C0000010
S1130BA080E090E061E00E94F5021F820F2EF5E2E2
S1130BB0CF2EF1E0DF2EF02D0F2EF6E3AF2EF1E075
S1130BC0BF2EF02D81E090E09093150280931402E3
S1130BD080E090E00E94FD02813071F40E944A049A
S1130BE08CEC90E00E943B0482E061E00E9454049B
S1130BF088ED90E00E943B040E943F038F3FE1F3A5
S1130C00182F8FE79AE1A6E081509040A040E1F7C9
S1130C1000C000000E944A04103309F0E0C089EECD
S1130C2090E00E943B0482E06CE00E9454048E0138
S1130C300F5F1F4F0F2EFCE0FF2EF02D0E943F038D
S1130C40D8018C938F3FD1F30E9429042FE73AE116
S1130C5046E0215030404040E1F700C0000082E00F
S1130C606F2D0E9454048AE20E942904F3940F5FBA
S1130C701F4F30E1F31611F781E090E00E94FD026E
S1130C809981891779F582E090E00E94FD029A81AA
S1130C90891741F583E090E00E94FD029B8189174A
S1130CA009F584E090E00E94FD029C818917D1F44B
S1130CB00E944A0484EF90E00E943B048FEF93EC7F
S1130CC0A9E081509040A040E1F700C0000083E417
S1130CD060E00E9479040E94070D9F81913009F41D
S1130CE06FC1F6C20E944A0481E091E00E943B0475
S1130CF02FEF31EE44E0215030404040E1F700C096
S1130D00000039851316C4F43150398782E061E05C
S1130D100E9454048CE091E00E943B0489858F5C1E
S1130D200E9429048FEF94E3ACE081509040A040EE
S1130D30E1F700C0000046CF0E94070D0E944A045C
S1130D4080E790E00E943B0482E061E00E9454044A
S1130D508BE790E00E943B0489E090E060E00E9411
S1130D60F5020AE00F2EFAE0FF2EF02D83E462E094
S1130D700E94790480E190E0602F0E94F50282E0F5
S1130D8066E00E9454048CE00E94AD03802F6F2D16
S1130D900E94500D192F805D0E942904812F805DCF
S1130DA00E94290481E890E00E943B04809118028B
S1130DB09091190284369105C8F2015010921902DB
S1130DC010921802101694F28EE00E94AD0389E08E
S1130DD090E06FEF0E94F50292E09987F3CE113311
S1130DE009F0DCC089EE90E00E943B0482E06CE0F4
S1130DF00E9454048E010C5F1F4F0F2EFCE0FF2E47
S1130E00F02D0E943F03D8018C938F3FD1F30E94B1
S1130E1029042FE73AE146E0215030404040E1F711
S1130E2000C0000082E06F2D0E9454048AE20E94F8
S1130E302904F3940F5F1F4F30E1F31611F785E097
S1130E4090E00E94FD029C81891759F586E090E0AC
S1130E500E94FD029D81891721F587E090E00E94A0
S1130E60FD029E818917E9F488E090E00E94FD026A
S1130E709F818917B1F40E944A0484EF90E00E9494
S1130E803B048FEF93ECA9E081509040A040E1F740
S1130E9000C0000083E461E00E9479040E94070D11
S1130EA08FC00E944A0481E091E00E943B042FEF2E
S1130EB031EE44E0215030404040E1F700C00000F2
S1130EC038851316C4F43150388782E061E00E94FB
S1130ED054048CE091E00E943B0488858F5C0E945E
S1130EE029048FEF94E3ACE081509040A040E1F7F7
S1130EF000C0000067CE0E94070D0E944A0480E7EC
S1130F0090E00E943B0482E061E00E9454048BE77D
S1130F1090E00E943B0489E090E060E00E94F502CA
S1130F200AE00F2EFAE0FF2EF02D83E462E00E9427
S1130F30790480E190E0602F0E94F50282E066E08F
S1130F400E9454048CE00E94AD03802F6F2D0E94F8
S1130F50500D192F805D0E942904812F805D0E940D
S1130F60290481E890E00E943B048091180290914A
S1130F70190284369105C8F2015010921902109298
S1130F801802101694F28EE00E94AD0389E090E0FE
S1130F906FEF0E94F50292E0988714CE88E191E009
S1130FA00E943B0482E061E00E9454042FEF32E58A
S1130FB047E0215030404040E1F700C0000002CE3D
S1130FC082E090E0909315028093140231E03F8315
S1130FD076C187E60E94DD0CEE24FF24E39400E052
S1130FE00F2EF2E84F2EF1E05F2EF02D0F2EF9E7D1
S1130FF02F2EF1E03F2EF02D0E944A04C6010E94DC
S11310003B0482E061E00E945404C5010E943B0459
S11310100E943F03209114023091150228303105BB
S1131020D1F4182FF0921502E09214020E944A049F
S113103087E491E00E943B048FEF94E3ACE081509D
S11310409040A040E1F700C0000083E461E00E940A
S11310507D040F8303C08F3FD9F2182F2FE739EA9D
S113106043E0215030404040E1F700C000000E94BE
S11310704A04113309F043C081E00E94DD0C88E585
S113108091E00E943B0481E00E94DD0C843549F428
S113109081E06AE00E94540481E691E00E943B04EE
S11310A00AC0863441F481E06AE00E94540484E674
S11310B091E00E943B0482E061E00E94540488E6CF
S11310C091E00E943B040E943F038F3FE1F32FE72E
S11310D039EA43E0215030404040E1F700C00000CD
S11310E0803319F40E94DD0C87CF813319F40E94F8
S11310F0DD0C82CF823339F70E94DD0C7DCF1233B1
S113110009F042C082E00E94DD0CC1010E943B0450
S113111082E00E94DD0C843549F481E06AE00E949B
S1131120540481E691E00E943B040AC0863441F4F1
S113113081E06AE00E94540484E691E00E943B044A
S113114082E061E00E94540488E691E00E943B043E
S11311500E943F038F3FE1F32FE739EA43E0215038
S113116030404040E1F700C00000803319F40E9491
S1131170DD0C42CF813319F40E94DD0C3DCF823364
S113118039F70E94DD0C38CF133309F042C083E0F5
S11311900E94DD0CC2010E943B0483E00E94DD0C2E
S11311A0843549F481E06AE00E94540481E691E0C8
S11311B00E943B040AC0863441F481E06AE00E9444
S11311C0540484E691E00E943B0482E061E00E94C2
S11311D0540488E691E00E943B040E943F038F3F41
S11311E0E1F32FE739EA43E0215030404040E1F792
S11311F000C00000803319F40E94DD0CFDCE813361
S113120019F40E94DD0CF8CE823339F70E94DD0C0C
S1131210F3CE143309F043C084E00E94DD0C8BE864
S113122091E00E943B0484E00E94DD0C843549F483
S113123081E06AE00E94540481E691E00E943B044C
S11312400AC0863441F481E06AE00E94540484E6D2
S113125091E00E943B0482E061E00E94540488E62D
S113126091E00E943B040E943F038F3FE1F32FE78C
S113127039EA43E0215030404040E1F700C000002B
S1131280803319F40E94DD0CB7CE813319F40E9427
S1131290DD0CB2CE823339F70E94DD0CADCE1F3F98
S11312A071F088E191E00E943B048FE79AE1A6E0A7
S11312B081509040A040E1F700C000009DCE809195
S11312C01402909115028230910509F482CE7ACCF1
S11312D083E090E090931502809314020F2EF5E2C0
S11312E04F2EF1E05F2EF02D0F2EF5E0AF2EF2E041
S11312F0BF2EF02DDEC281E60E94DD0C0F2EF8E633
S11313002F2EF1E03F2EF02D022DD32C0E944A0403
S1131310C2010E943B0482E061E00E94540484E91B
S113132091E00E943B040E943F03209114023091FB
S1131330150227303105D9F4182F81E090E09093FD
S11313401502809314020E944A0487E491E00E94EB
S11313503B042FEF34E34CE0215030404040E1F7B0
S113136000C0000083E460E00E947D0403C08F3F5E
S1131370D1F2182F8FE799EAA3E081509040A04062
S1131380E1F700C000000E944A04113309F042C092
S113139081E00E94DD0C88E591E00E943B0481E03D
S11313A00E94DD0C843549F481E06AE00E94540413
S11313B081E691E00E943B040AC0863441F481E056
S11313C06AE00E94540484E691E00E943B0482E0B7
S11313D061E00E945404C1010E943B040E943F0347
S11313E08F3FE1F32FE739EA43E02150304040409A
S11313F0E1F700C00000803319F40E94DD0C86CFB1
S1131400813319F40E94DD0C81CF823339F70E94B5
S1131410DD0C7CCF123309F042C082E00E94DD0C67
S113142089E791E00E943B0482E00E94DD0C843550
S113143049F481E06AE00E94540481E691E00E944C
S11314403B040AC0863441F481E06AE00E945404FB
S113145084E691E00E943B0482E061E00E9454042F
S1131460C1010E943B040E943F038F3FE1F32FE739
S113147039EA43E0215030404040E1F700C0000029
S1131480803319F40E94DD0C41CF813319F40E949A
S1131490DD0C3CCF823339F70E94DD0C37CF133398
S11314A009F042C083E00E94DD0C82E891E00E94D2
S11314B03B0483E00E94DD0C843549F481E06AE05A
S11314C00E94540481E691E00E943B040AC08634E1
S11314D041F481E06AE00E94540484E691E00E94B1
S11314E03B0482E061E00E945404C1010E943B0479
S11314F00E943F038F3FE1F32FE739EA43E0215095
S113150030404040E1F700C00000803319F40E94ED
S1131510DD0CFCCE813319F40E94DD0CF7CE82334E
S113152039F70E94DD0CF2CE143309F0B2C184E025
S11315300E94DD0C0F2EF4EAEF2EF1E0FF2EF02DC9
S11315400E944A04C7010E943B0482E061E00E94B9
S1131550540482EB91E00E943B040E943F032091DB
S113156014023091150227303105D9F4182F81E087
S113157090E090931502809314020E944A0487E439
S113158091E00E943B048FEF94E3ACE081509040E3
S1131590A040E1F700C0000083E460E00E947D0405
S11315A003C08F3FD1F2182F2FE739EA43E02150CF
S11315B030404040E1F700C000000E944A04183364
S11315C021F488E00E94DD0CA1CE153309F043C05C
S11315D085E00E94DD0C8BE891E00E943B0485E0ED
S11315E00E94DD0C843549F481E06AE00E945404D1
S11315F081E691E00E943B040AC0863441F481E014
S11316006AE00E94540484E691E00E943B0482E074
S113161061E00E945404802F9D2D0E943B040E948F
S11316203F038F3FE1F32FE739EA43E02150304095
S11316304040E1F700C00000803319F40E94DD0C43
S11316407FCF813319F40E94DD0C7ACF823339F7CE
S11316500E94DD0C75CF163309F043C086E00E946A
S1131660DD0C83EC91E00E943B0486E00E94DD0CDB
S1131670843549F481E067E00E94540489EC91E0E8
S11316800E943B040AC0863441F481E067E00E9472
S1131690540484E691E00E943B0482E061E00E94ED
S11316A05404802F9D2D0E943B040E943F038F3FD2
S11316B0E1F32FE739EA43E0215030404040E1F7BD
S11316C000C00000803319F40E94DD0C39CF81334F
S11316D019F40E94DD0C34CF823339F70E94DD0CFB
S11316E02FCF173309F0C5C087E00E94DD0C0E949C
S11316F04A04C4010E943B0482E061E00E94540455
S1131700C3010E943B040E943F038F3FE1F32FE794
S113171039EA43E0215030404040E1F700C0000086
S1131720803319F40E94DD0C0BCF813309F05BC0C8
S11317300E94DD0C0E944A048CEE91E00E943B045E
S11317400E943F038F3FE1F3182F8FE79AE1A6E051
S113175081509040A040E1F700C000000F2EF0ED52
S1131760CF2EF02DC10E81E06EE00E945404812F33
S11317700E9429040E943F038F3FE1F3182F2FE7B3
S113178039EA43E0215030404040E1F700C0000016
S113179081E06FE00E945404812F0E9429048FEF9E
S11317A094E3ACE081509040A040E1F700C0000019
S11317B0CC0C8C2D880F880F8C0D8053810F0E94C8
S11317C0DD0C0E944A048CEF91E00E943B042FEF51
S11317D034E34CE0215030404040E1F700C00000C9
S11317E00E944A0484CF823309F0AACE0E94DD0C01
S11317F00E944A04C5010E943B0482E30E94DD0C5E
S1131800843549F481E06DE00E94540489EC91E050
S11318100E943B040AC0863441F481E06DE00E94DA
S1131820540484E691E00E943B0482E061E00E945B
S11318305404802F9D2D0E943B040E943F038F3F40
S1131840E1F32FE739EA43E0215030404040E1F72B
S113185000C00000803319F40E94DD0C48CF8133AE
S113186019F40E94DD0C43CF823339F70E94DD0C5A
S11318703ECF1F3FF1F088E191E00E943B048FE7E7
S11318809AE1A6E081509040A040E1F700C000003A
S113189057CE1F3F71F088E191E00E943B042FE78F
S11318A03AE146E0215030404040E1F700C00000FA
S11318B02DCD80911402909115028330910509F485
S11318C01ACD64C81F920F920FB60F9211242F9352
S11318D03F934F935F936F937F938F939F93AF93B4
S11318E0BF93EF93FF938091180290911902019690
S11318F09093190280931802809116029091170216
S11319000196909317028093160280911802909189
S1131910190221E0843F920770F01092190210928C
S1131920180288E090E0909315028093140283E4F7
S113193061E00E947D04809116029091170225E0D7
S11319408C3D920750F0109217021092160287E015
S113195090E09093150280931402FF91EF91BF9150
S1131960AF919F918F917F916F915F914F913F9133
S11319702F910F900FBE0F901F90189582E464E092
S113198041E00E94490082E465E041E00E94490090
S113199082E467E041E00E9449006C9A689A6E9A7A
S11319A082E464E041E00E94CC0008956E9A82E4EF
S11319B066E041E00E9449000895CF93C82F82E475
S11319C064E040E00E94CC00CFB9779BFECF8FB19A
S11319D0CF9108958FB9779BFECF8FB10895CF93A0
S11319E0DF93EC018881882379F021960E94DD0C35
S11319F08FEF92E5A7E081509040A040E1F700C04E
S1131A0000008991882391F7DF91CF91089583B7DE
S1131A10886083BF80E58CBF83B7816083BF83B751
S1131A20846083BF789489B7826089BF0895BB9A24
S1131A3083B7886083BF80E48CBF83B7816083BF32
S1131A4083B7846083BF83B7806183BF0895BB9AE3
S1131A5083B7806483BF83B7886083BF80E48CBF0F
S1131A6083B7816083BF83B7846083BF83B780619A
S1131A7083BF83B7806283BF0895BB9A83B78064B2
S1131A8083BF80E48CBF83B7816083BF83B78460E6
S1131A9083BF83B7806183BF83B7806283BF0895A8
S1131AA087FB082E062687FD819567FD619505D085
S1131AB00EF4919507FC81950895991B79E004C073
S1131AC0991F961708F0961B881F7A95C9F7809579
S1091AD00895F894FFCF15
S1131AD63738392F3435362A3132332D41303D2BC0
S1131AE6426C6F636B204D6F6465005761697420A7
S1131AF600207365636F6E640048656C6C6F0057F5
S1131B06656C636F6D6520486F6D65007365742041
S1131B1670617373776F726400666F722041646DCF
S1131B26696E203A00706173732073617665640090
S1131B36666F72204775657374203A0073656C6529
S1131B466374206D6F646500303A41646D696E207C
S1131B5620313A477565737400636865636B20705A
S1131B6661737300636F727265637420706173735B
S1131B760077726F6E672070617373006C656674AC
S1131B86207472696573200077726F6E67206368CC
S1131B966F69636500313A526F6F6D312020323AB6
S1131BA6526F6F6D3200333A526F6F6D33202034AB
S1131BB63A526F6F6D340073657373696F6E207478
S1131BC6696D65206F757400526F6F6D31203A53DD
S1131BD6004F4E004F464600312D4F4E20322D4FBA
S1131BE6464620302D52455400526F6F6D32203ACE
S1131BF65300526F6F6D33203A5300526F6F6D343A
S1131C06203A5300333A526F6F6D332020343A4DE5
S1131C166F726500352D526F6F6D342020362D544A
S1131C265600372D41697220636F6E6420382D5239
S1131C364554005456203A53004F4E2000313A730F
S1131C466574204169722054656D7000323A436FA1
S1131C566E74726F6C20303A5245540054656D7040
S1131C66657261747572653D202D2D0054656D7025
S1131C76205365740041495220636F6E64203A53C1
S1091C8600FFFFFF010056
S9030000FC
