S00D0000736C6176652E73726563FC
S11300000C942A000C9447000C9447000C9447006D
S11300100C9447000C9447000C9447000C94470040
S11300200C9447000C9447000C94A3040C944700D0
S11300300C9447000C9447000C9447000C94470020
S11300400C9447000C9447000C9447000C94470010
S11300500C94470011241FBECFE5D8E0DEBFCDBF0E
S113006010E0A0E6B0E0E0E4FDE002C005900D92EF
S1130070A236B107D9F710E0A2E6B0E001C01D92A4
S1130080A536B107E1F70E94C9020C949E060C94B0
S113009000003E9A3F9A379A329A319A0895369AD6
S11300A0349BFECF349A84B190E045B1342F20E0E4
S11300B0822B932B0895823451F1833420F48134BC
S11300C009F07BC007C0833409F43EC0843409F0CE
S11300D074C057C0413069F42AB381E090E0AC01A8
S11300E002C0440F551F6A95E2F7BA01622B6ABB3E
S11300F008952AB381E090E0AC0102C0440F551F7B
S11301006A95E2F7BA01609562236ABB08954130AB
S113011069F427B381E090E0AC0102C0440F551F9D
S11301206A95E2F7BA01622B67BB089527B381E0B1
S113013090E0AC0102C0440F551F6A95E2F7BA0182
S11301406095622367BB0895413069F424B381E06C
S113015090E0AC0102C0440F551F6A95E2F7BA0162
S1130160622B64BB089524B381E090E0AC0102C02B
S1130170440F551F6A95E2F7BA016095622364BB88
S11301800895413069F421B381E090E0AC0102C0EC
S1130190440F551F6A95E2F7BA01622B61BB0895BB
S11301A021B381E090E0AC0102C0440F551F6A9571
S11301B0E2F7BA016095622361BB0895823451F17C
S11301C0833420F4813409F07BC007C0833409F4FC
S11301D03EC0843409F074C057C0413069F42BB375
S11301E081E090E0AC0102C0440F551F6A95E2F72C
S11301F0BA01622B6BBB08952BB381E090E0AC0194
S113020002C0440F551F6A95E2F7BA016095622354
S11302106BBB0895413069F428B381E090E0AC01F0
S113022002C0440F551F6A95E2F7BA01622B68BBFE
S1130230089528B381E090E0AC0102C0440F551F3B
S11302406A95E2F7BA016095622368BB089541306C
S113025069F425B381E090E0AC0102C0440F551F5E
S11302606A95E2F7BA01622B65BB089525B381E074
S113027090E0AC0102C0440F551F6A95E2F7BA0141
S11302806095622365BB0895413069F422B381E02F
S113029090E0AC0102C0440F551F6A95E2F7BA0121
S11302A0622B62BB089522B381E090E0AC0102C0EE
S11302B0440F551F6A95E2F7BA016095622362BB49
S11302C008958234F1F0833420F4813409F04FC06E
S11302D006C0833441F1843409F049C036C029B3DF
S11302E081E090E0062E02C0880F991F0A94E2F77D
S11302F030E08223932302C0959587956A95E2F7AF
S1130300089526B381E090E0062E02C0880F991F5D
S11303100A94E2F730E08223932302C095958795EF
S11303206A95E2F7089523B381E090E0062E02C0B7
S1130330880F991F0A94E2F730E08223932302C0C6
S1130340959587956A95E2F7089520B381E090E04A
S1130350062E02C0880F991F0A94E2F730E0822328
S1130360932302C0959587956A95E2F7089580E0F6
S113037008958234B9F0833418F48134C9F505C082
S11303808334E9F08434A1F527C02BB381E090E0F5
S1130390AC0102C0440F551F6A95E2F7BA01622707
S11303A06BBB089528B381E090E0AC0102C0440F18
S11303B0551F6A95E2F7BA01622768BB089525B311
S11303C081E090E0AC0102C0440F551F6A95E2F74A
S11303D0BA01622765BB089522B381E090E0AC01C5
S11303E002C0440F551F6A95E2F7BA01622762BB47
S11303F00895823461F0833418F4813469F405C0BB
S1130400833439F0843441F406C06ABB089567BB71
S1130410089564BB089561BB0895823461F0833408
S113042018F4813469F405C0833439F0843441F418
S113043006C06BBB089568BB089565BB089562BB95
S11304400895823461F0833418F4813471F405C062
S1130450833439F0843449F406C089B3089586B3EB
S1130460089583B3089580B3089580E00895823495
S113047051F1833420F4813409F07BC007C0833404
S113048009F43EC0843409F074C057C0413069F4A3
S11304902BB381E090E0AC0102C0440F551F6A9574
S11304A0E2F7BA01622B6BBB08952BB381E090E0B5
S11304B0AC0102C0440F551F6A95E2F7BA0160957A
S11304C062236BBB0895413069F428B381E090E066
S11304D0AC0102C0440F551F6A95E2F7BA01622BC2
S11304E068BB089528B381E090E0AC0102C0440FDA
S11304F0551F6A95E2F7BA016095622368BB0895B7
S1130500413069F425B381E090E0AC0102C0440FAE
S1130510551F6A95E2F7BA01622B65BB089525B3AE
S113052081E090E0AC0102C0440F551F6A95E2F7E8
S1130530BA016095622365BB0895413069F422B322
S113054081E090E0AC0102C0440F551F6A95E2F7C8
S1130550BA01622B62BB089522B381E090E0AC0142
S113056002C0440F551F6A95E2F7BA0160956223F1
S113057062BB089541E00E945B00089541E00E943F
S1130580DE00089540E00E94DE0008950E94B90153
S1130590089584E462E00E94BA0284E463E00E9465
S11305A0BA0284E464E00E94BA0284E465E00E9432
S11305B0BA0284E466E00E94BA0284E467E00E941E
S11305C0BA0283E460E00E94BA020E940A050E9413
S11305D049000E9438058FEF0E941B05873609F4F5
S11305E08BC08136B1F7ACC18C2F0E941B058130C2
S11305F0F9F4949903C0949B03C003C0C4E501C0FB
S1130600C6E48C2F0E941B058C2F0E941B0581338E
S113061029F484E464E00E94BE02E6CF823329F424
S113062084E464E00E94C202DFCF803369F7DCCF48
S11306308230F9F4959903C0959B03C003C0C4E5C7
S113064001C0C6E48C2F0E941B058C2F0E941B0541
S1130650813329F484E465E00E94BE02C5CF82336D
S113066029F484E465E00E94C202BECF803369F7B6
S1130670BBCF8330F9F4969903C0969B03C003C0A3
S1130680C4E501C0C6E48C2F0E941B058C2F0E9478
S11306901B05813329F484E466E00E94BE02A4CFE2
S11306A0823329F484E466E00E94C2029DCF803341
S11306B069F79ACF843009F097CF979903C0979B35
S11306C003C003C0C4E501C0C6E48C2F0E941B050F
S11306D08C2F0E941B05813329F484E467E00E9477
S11306E0BE0282CF823329F484E467E00E94C2020E
S11306F07BCF803369F778CFCFEF76CF8C2F0E94F2
S11307001B058130F9F4949903C0949B03C003C082
S1130710C4E501C0C6E48C2F0E941B058C2F0E94E7
S11307201B05813329F484E464E00E94BE02E6CF11
S1130730823329F484E464E00E94C202DFCF803370
S113074069F7DCCF8230F9F4959903C0959B03C017
S113075003C0C4E501C0C6E48C2F0E941B058C2F86
S11307600E941B05813329F484E465E00E94BE02E3
S1130770C5CF823329F484E465E00E94C202BECF6F
S1130780803369F7BBCF8330F9F4969903C0969B05
S113079003C003C0C4E501C0C6E48C2F0E941B053E
S11307A08C2F0E941B05813329F484E466E00E94A7
S11307B0BE02A4CF823329F484E466E00E94C2021C
S11307C09DCF803369F79ACF843009F097CF8C2F6F
S11307D00E941B05883009F491CF8530F9F497996C
S11307E003C0979B03C003C0C4E501C0C6E48C2FBB
S11307F00E941B058C2F0E941B05813329F484E47D
S113080067E00E94BE02E3CF823329F484E467E008
S11308100E94C202DCCF803369F7D9CF8630F9F465
S1130820939903C0939B03C003C0C4E501C0C6E40D
S11308308C2F0E941B058C2F0E941B05813329F4E9
S113084084E463E00E94BE02C2CF823329F484E4CC
S113085063E00E94C202BBCF803369F7B8CF873010
S113086009F04CCF8C2F0E941B05803309F4AFCFC5
S1130870813331F48C2F0E941B0580936000F2CFEA
S1130880823309F0A4CF929903C0929B03C003C0A2
S1130890C4E501C0C6E48C2F0E941B050E944F00D2
S11308A0BC0180E090E00E94AD0520E030E040E82B
S11308B05EE30E9413060E948105DC01CB01909344
S11308C06300809362008C2F0E941B05813359F5CD
S11308D0D09364000E944F00BC0180E090E00E942D
S11308E0AD0520E030E040E85EE30E9413060E947C
S11308F08105DC01CB019093630080936200209119
S11309006000809162009091630030E08217930749
S113091028F084E462E00E94BE02A4CF84E462E092
S11309200E94C2029FCF823339F484E462E00E94C1
S1130930C2021092640096CF803309F0AFCF92CFF9
S1130940CFEFD1E0DBCE1F920F920FB60F9211249E
S11309502F933F934F935F936F937F938F939F93C3
S1130960AF93BF93EF93FF930E944F00BC0180E0CD
S113097090E00E94AD0520E030E040E85EE30E9494
S113098013060E948105DC01CB01909363008093E0
S1130990620020916000809162009091630030E0D9
S11309A02817390748F480916400813029F484E4DD
S11309B062E00E94BE0204C084E462E00E94C202BB
S11309C0FF91EF91BF91AF919F918F917F916F9123
S11309D05F914F913F912F910F900FBE0F901F90F9
S11309E0189582E464E041E00E945B0082E465E0E3
S11309F041E00E945B0082E467E041E00E945B000A
S1130A006C9A689A6E9A6F9A82E464E041E00E945C
S1130A10DE0008956E9A82E466E041E00E945B0085
S1130A200895CF93C82F82E464E040E00E94DE0082
S1130A30CFB9CF9108958FB9779BFECF8FB1089529
S1130A40CF93DF93EC018881882379F021960E946B
S1130A5011058FEF92E5A7E081509040A040E1F7A7
S1130A6000C000008991882391F7DF91CF91089508
S1130A7083B7886083BF80E58CBF83B7816083BF01
S1130A8083B7846083BF789489B7826089BF0895EF
S1130A90BB9A83B7886083BF80E48CBF83B78160CF
S1130AA083BF83B7846083BF83B7806183BF0895A6
S1130AB0BB9A83B7806483BF83B7886083BF80E4B5
S1130AC08CBF83B7816083BF83B7846083BF83B7E0
S1130AD0806183BF83B7806283BF0895BB9A83B765
S1130AE0806483BF80E48CBF83B7816083BF83B796
S1130AF0846083BF83B7806183BF83B7806283BF11
S1130B00089570D088F09F5790F0B92F9927B75166
S1130B10A0F0D1F0660F771F881F991F1AF0BA95BD
S1130B20C9F712C0B13081F077D0B1E0089574C034
S1130B30672F782F8827B85F39F0B93FCCF38695B3
S1130B4077956795B395D9F73EF490958095709510
S1130B5061957F4F8F4F9F4F0895E89409C097FB8D
S1130B603EF490958095709561957F4F8F4F9F4F80
S1130B709923A9F0F92F96E9BB279395F6958795C4
S1130B8077956795B795F111F8CFFAF4BB0F11F487
S1130B9060FF1BC06F5F7F4F8F4F9F4F16C088232E
S1130BA011F096E911C0772321F09EE8872F762F64
S1130BB005C0662371F096E8862F70E060E02AF0A5
S1130BC09A95660F771F881FDAF7880F9695879591
S1130BD097F9089557FD9058440F551F59F05F3FFA
S1130BE071F04795880F97FB991F61F09F3F79F04B
S1130BF087950895121613061406551FF2CF4695CD
S1130C00F1DF08C0161617061806991FF1CF86954E
S1130C107105610508940895E894BB276627772732
S1130C20CB0197F908950BD078C069D028F06ED025
S1130C3018F0952309F05AC05FC01124EECFCADF23
S1130C40A0F3959FD1F3950F50E0551F629FF001DB
S1130C50729FBB27F00DB11D639FAA27F00DB11D34
S1130C60AA1F649F6627B00DA11D661F829F2227BD
S1130C70B00DA11D621F739FB00DA11D621F839F44
S1130C80A00D611D221F749F3327A00D611D231F1A
S1130C90849F600D211D822F762F6A2F11249F5768
S1130CA050408AF0E1F088234AF0EE0FFF1FBB1F8B
S1130CB0661F771F881F91505040A9F79E3F51052A
S1130CC070F014C0AACF5F3FECF3983EDCF3869536
S1130CD077956795B795F795E7959F5FC1F7FE2BD5
S1130CE0880F911D9695879597F9089597F99F67B1
S1130CF080E870E060E008959FEF80EC08950024A0
S1130D000A941616170618060906089500240A946C
S1130D1012161306140605060895092E0394000CF2
S1130D2011F4882352F0BB0F40F4BF2B11F460FF81
S1130D3004C06F5F7F4F8F4F9F4F0895F894FFCF8C
S1050D40640049
S9030000FC
